{
  "contractName": "OneMillionPixel",
  "abi": [
    {
      "inputs": [
        {
          "internalType": "address",
          "name": "_devaddr",
          "type": "address"
        },
        {
          "internalType": "uint256",
          "name": "_weiPixelPrice",
          "type": "uint256"
        }
      ],
      "stateMutability": "nonpayable",
      "type": "constructor"
    },
    {
      "anonymous": false,
      "inputs": [
        {
          "indexed": true,
          "internalType": "uint256",
          "name": "idx",
          "type": "uint256"
        },
        {
          "indexed": false,
          "internalType": "address",
          "name": "owner",
          "type": "address"
        },
        {
          "indexed": false,
          "internalType": "uint16",
          "name": "x",
          "type": "uint16"
        },
        {
          "indexed": false,
          "internalType": "uint16",
          "name": "y",
          "type": "uint16"
        },
        {
          "indexed": false,
          "internalType": "uint16",
          "name": "width",
          "type": "uint16"
        },
        {
          "indexed": false,
          "internalType": "uint16",
          "name": "height",
          "type": "uint16"
        },
        {
          "indexed": false,
          "internalType": "string",
          "name": "link",
          "type": "string"
        },
        {
          "indexed": false,
          "internalType": "string",
          "name": "image",
          "type": "string"
        },
        {
          "indexed": false,
          "internalType": "string",
          "name": "title",
          "type": "string"
        }
      ],
      "name": "Buy",
      "type": "event"
    },
    {
      "anonymous": false,
      "inputs": [
        {
          "indexed": true,
          "internalType": "uint256",
          "name": "idx",
          "type": "uint256"
        }
      ],
      "name": "Destroy",
      "type": "event"
    },
    {
      "anonymous": false,
      "inputs": [],
      "name": "DestroyAll",
      "type": "event"
    },
    {
      "anonymous": false,
      "inputs": [
        {
          "indexed": true,
          "internalType": "uint256",
          "name": "idx",
          "type": "uint256"
        },
        {
          "indexed": false,
          "internalType": "string",
          "name": "link",
          "type": "string"
        },
        {
          "indexed": false,
          "internalType": "string",
          "name": "image",
          "type": "string"
        },
        {
          "indexed": false,
          "internalType": "string",
          "name": "title",
          "type": "string"
        }
      ],
      "name": "Edit",
      "type": "event"
    },
    {
      "anonymous": false,
      "inputs": [
        {
          "indexed": true,
          "internalType": "address",
          "name": "previousOwner",
          "type": "address"
        },
        {
          "indexed": true,
          "internalType": "address",
          "name": "newOwner",
          "type": "address"
        }
      ],
      "name": "OwnershipTransferred",
      "type": "event"
    },
    {
      "anonymous": false,
      "inputs": [
        {
          "indexed": true,
          "internalType": "uint256",
          "name": "idx",
          "type": "uint256"
        },
        {
          "indexed": false,
          "internalType": "address",
          "name": "from",
          "type": "address"
        },
        {
          "indexed": false,
          "internalType": "address",
          "name": "to",
          "type": "address"
        }
      ],
      "name": "SetAdOwner",
      "type": "event"
    },
    {
      "anonymous": false,
      "inputs": [
        {
          "indexed": true,
          "internalType": "address",
          "name": "user",
          "type": "address"
        },
        {
          "indexed": true,
          "internalType": "address",
          "name": "newAddress",
          "type": "address"
        }
      ],
      "name": "SetDevAddress",
      "type": "event"
    },
    {
      "anonymous": false,
      "inputs": [
        {
          "indexed": true,
          "internalType": "address",
          "name": "user",
          "type": "address"
        },
        {
          "indexed": true,
          "internalType": "uint256",
          "name": "newPixelsPerCell",
          "type": "uint256"
        }
      ],
      "name": "SetPixelsPerCell",
      "type": "event"
    },
    {
      "anonymous": false,
      "inputs": [
        {
          "indexed": true,
          "internalType": "address",
          "name": "user",
          "type": "address"
        },
        {
          "indexed": true,
          "internalType": "uint256",
          "name": "newWeiPixelPrice",
          "type": "uint256"
        }
      ],
      "name": "SetWeiPixelPrice",
      "type": "event"
    },
    {
      "inputs": [
        {
          "internalType": "uint256",
          "name": "",
          "type": "uint256"
        }
      ],
      "name": "ads",
      "outputs": [
        {
          "internalType": "address",
          "name": "owner",
          "type": "address"
        },
        {
          "internalType": "uint16",
          "name": "x",
          "type": "uint16"
        },
        {
          "internalType": "uint16",
          "name": "y",
          "type": "uint16"
        },
        {
          "internalType": "uint16",
          "name": "width",
          "type": "uint16"
        },
        {
          "internalType": "uint16",
          "name": "height",
          "type": "uint16"
        },
        {
          "internalType": "string",
          "name": "link",
          "type": "string"
        },
        {
          "internalType": "string",
          "name": "image",
          "type": "string"
        },
        {
          "internalType": "string",
          "name": "title",
          "type": "string"
        }
      ],
      "stateMutability": "view",
      "type": "function"
    },
    {
      "inputs": [],
      "name": "devaddr",
      "outputs": [
        {
          "internalType": "address",
          "name": "",
          "type": "address"
        }
      ],
      "stateMutability": "view",
      "type": "function"
    },
    {
      "inputs": [
        {
          "internalType": "uint256",
          "name": "",
          "type": "uint256"
        },
        {
          "internalType": "uint256",
          "name": "",
          "type": "uint256"
        }
      ],
      "name": "grid",
      "outputs": [
        {
          "internalType": "bool",
          "name": "",
          "type": "bool"
        }
      ],
      "stateMutability": "view",
      "type": "function"
    },
    {
      "inputs": [],
      "name": "owner",
      "outputs": [
        {
          "internalType": "address",
          "name": "",
          "type": "address"
        }
      ],
      "stateMutability": "view",
      "type": "function"
    },
    {
      "inputs": [],
      "name": "pixelsPerCell",
      "outputs": [
        {
          "internalType": "uint256",
          "name": "",
          "type": "uint256"
        }
      ],
      "stateMutability": "view",
      "type": "function"
    },
    {
      "inputs": [],
      "name": "renounceOwnership",
      "outputs": [],
      "stateMutability": "nonpayable",
      "type": "function"
    },
    {
      "inputs": [
        {
          "internalType": "address",
          "name": "newOwner",
          "type": "address"
        }
      ],
      "name": "transferOwnership",
      "outputs": [],
      "stateMutability": "nonpayable",
      "type": "function"
    },
    {
      "inputs": [],
      "name": "weiPixelPrice",
      "outputs": [
        {
          "internalType": "uint256",
          "name": "",
          "type": "uint256"
        }
      ],
      "stateMutability": "view",
      "type": "function"
    },
    {
      "inputs": [
        {
          "internalType": "address",
          "name": "_devaddr",
          "type": "address"
        }
      ],
      "name": "setDevAddress",
      "outputs": [],
      "stateMutability": "nonpayable",
      "type": "function"
    },
    {
      "inputs": [],
      "name": "getDevAddress",
      "outputs": [
        {
          "internalType": "address",
          "name": "",
          "type": "address"
        }
      ],
      "stateMutability": "view",
      "type": "function"
    },
    {
      "inputs": [
        {
          "internalType": "uint256",
          "name": "_weiPixelPrice",
          "type": "uint256"
        }
      ],
      "name": "setWeiPixelPrice",
      "outputs": [],
      "stateMutability": "nonpayable",
      "type": "function"
    },
    {
      "inputs": [],
      "name": "getWeiPixelPrice",
      "outputs": [
        {
          "internalType": "uint256",
          "name": "",
          "type": "uint256"
        }
      ],
      "stateMutability": "view",
      "type": "function"
    },
    {
      "inputs": [
        {
          "internalType": "uint256",
          "name": "_pixelsPerCell",
          "type": "uint256"
        }
      ],
      "name": "setPixelsPerCell",
      "outputs": [],
      "stateMutability": "nonpayable",
      "type": "function"
    },
    {
      "inputs": [],
      "name": "getPixelsPerCell",
      "outputs": [
        {
          "internalType": "uint256",
          "name": "",
          "type": "uint256"
        }
      ],
      "stateMutability": "view",
      "type": "function"
    },
    {
      "inputs": [
        {
          "internalType": "uint256",
          "name": "_idx",
          "type": "uint256"
        },
        {
          "internalType": "address",
          "name": "_newOwner",
          "type": "address"
        }
      ],
      "name": "setAdOwner",
      "outputs": [],
      "stateMutability": "nonpayable",
      "type": "function"
    },
    {
      "inputs": [
        {
          "internalType": "uint256",
          "name": "_idx",
          "type": "uint256"
        }
      ],
      "name": "getAdOwner",
      "outputs": [
        {
          "internalType": "address",
          "name": "",
          "type": "address"
        }
      ],
      "stateMutability": "view",
      "type": "function"
    },
    {
      "inputs": [],
      "name": "getAdsLength",
      "outputs": [
        {
          "internalType": "uint256",
          "name": "",
          "type": "uint256"
        }
      ],
      "stateMutability": "view",
      "type": "function"
    },
    {
      "inputs": [
        {
          "internalType": "uint16",
          "name": "_x",
          "type": "uint16"
        },
        {
          "internalType": "uint16",
          "name": "_y",
          "type": "uint16"
        },
        {
          "internalType": "uint16",
          "name": "_width",
          "type": "uint16"
        },
        {
          "internalType": "uint16",
          "name": "_height",
          "type": "uint16"
        },
        {
          "internalType": "string",
          "name": "_link",
          "type": "string"
        },
        {
          "internalType": "string",
          "name": "_image",
          "type": "string"
        },
        {
          "internalType": "string",
          "name": "_title",
          "type": "string"
        }
      ],
      "name": "buy",
      "outputs": [
        {
          "internalType": "uint256",
          "name": "",
          "type": "uint256"
        }
      ],
      "stateMutability": "payable",
      "type": "function"
    },
    {
      "inputs": [
        {
          "internalType": "uint256",
          "name": "_idx",
          "type": "uint256"
        },
        {
          "internalType": "string",
          "name": "_link",
          "type": "string"
        },
        {
          "internalType": "string",
          "name": "_image",
          "type": "string"
        },
        {
          "internalType": "string",
          "name": "_title",
          "type": "string"
        }
      ],
      "name": "edit",
      "outputs": [],
      "stateMutability": "nonpayable",
      "type": "function"
    },
    {
      "inputs": [
        {
          "internalType": "uint256",
          "name": "_idx",
          "type": "uint256"
        },
        {
          "internalType": "string",
          "name": "_link",
          "type": "string"
        },
        {
          "internalType": "string",
          "name": "_image",
          "type": "string"
        },
        {
          "internalType": "string",
          "name": "_title",
          "type": "string"
        }
      ],
      "name": "editByAdmin",
      "outputs": [],
      "stateMutability": "nonpayable",
      "type": "function"
    },
    {
      "inputs": [
        {
          "internalType": "uint256",
          "name": "_idx",
          "type": "uint256"
        }
      ],
      "name": "destroy",
      "outputs": [],
      "stateMutability": "nonpayable",
      "type": "function"
    },
    {
      "inputs": [],
      "name": "destroyAll",
      "outputs": [],
      "stateMutability": "nonpayable",
      "type": "function"
    },
    {
      "inputs": [],
      "name": "withdraw",
      "outputs": [],
      "stateMutability": "payable",
      "type": "function"
    }
  ],
  "bytecode": "0x6080604052606460045534801561001557600080fd5b5060405162001b8938038062001b89833981016040819052610036916100b7565b60006100406100b3565b600080546001600160a01b0319166001600160a01b0383169081178255604051929350917f8be0079c531659141344cd1fd0a4f28419497f9722a3daafe3b4186f6b6457e0908290a350600180546001600160a01b0319166001600160a01b0393909316929092179091556003556100ef565b3390565b600080604083850312156100c9578182fd5b82516001600160a01b03811681146100df578283fd5b6020939093015192949293505050565b611a8a80620000ff6000396000f3fe6080604052600436106101405760003560e01c80637a6adab6116100b6578063c2e4dc7d1161006f578063c2e4dc7d14610346578063d0d41fe114610359578063d49e77cd14610379578063d5bec84e1461038e578063e34d99bf146103a3578063f2fde38b146103b857610140565b80637a6adab61461029c5780637d9339cd146102b15780638cd11323146102d15780638da5cb5b146102f15780639b07a0d7146103065780639d1187701461032657610140565b80631ab93534116101085780631ab93534146101fd5780633ccfd60b1461021257806355843fda1461021a578063715018a614610247578063759c7a581461025c578063793710f71461027c57610140565b806311a7a4c01461014557806312d1f1101461018257806313f4b42c146101a4578063146008e3146101b957806315729016146101e6575b600080fd5b34801561015157600080fd5b5061016561016036600461148a565b6103d8565b604051610179989796959493929190611696565b60405180910390f35b34801561018e57600080fd5b506101976105e4565b6040516101799190611930565b3480156101b057600080fd5b506101976105ea565b3480156101c557600080fd5b506101d96101d436600461155b565b6105f0565b6040516101799190611714565b3480156101f257600080fd5b506101fb61062f565b005b34801561020957600080fd5b506101976106ae565b6101fb6106b4565b34801561022657600080fd5b5061023a61023536600461148a565b61072f565b6040516101799190611668565b34801561025357600080fd5b506101fb610776565b34801561026857600080fd5b506101fb6102773660046114a2565b6107ff565b34801561028857600080fd5b506101fb61029736600461148a565b6108b8565b3480156102a857600080fd5b5061019761092c565b3480156102bd57600080fd5b506101fb6102cc3660046114cd565b610932565b3480156102dd57600080fd5b506101fb6102ec36600461148a565b610a52565b3480156102fd57600080fd5b5061023a610ac6565b34801561031257600080fd5b506101fb6103213660046114cd565b610ad5565b34801561033257600080fd5b506101fb61034136600461148a565b610b53565b6101976103543660046113c3565b610c2a565b34801561036557600080fd5b506101fb6103743660046113a2565b611045565b34801561038557600080fd5b5061023a6110d0565b34801561039a57600080fd5b506101976110df565b3480156103af57600080fd5b5061023a6110e5565b3480156103c457600080fd5b506101fb6103d33660046113a2565b6110f4565b600281815481106103e857600080fd5b6000918252602090912060049091020180546001820180546001600160a01b038316945061ffff600160a01b8404811694600160b01b8504821694600160c01b8104831694600160d01b90910490921692909190610445906119cb565b80601f0160208091040260200160405190810160405280929190818152602001828054610471906119cb565b80156104be5780601f10610493576101008083540402835291602001916104be565b820191906000526020600020905b8154815290600101906020018083116104a157829003601f168201915b5050505050908060020180546104d3906119cb565b80601f01602080910402602001604051908101604052809291908181526020018280546104ff906119cb565b801561054c5780601f106105215761010080835404028352916020019161054c565b820191906000526020600020905b81548152906001019060200180831161052f57829003601f168201915b505050505090806003018054610561906119cb565b80601f016020809104026020016040519081016040528092919081815260200182805461058d906119cb565b80156105da5780601f106105af576101008083540402835291602001916105da565b820191906000526020600020905b8154815290600101906020018083116105bd57829003601f168201915b5050505050905088565b60045490565b60045481565b6005826064811061060057600080fd5b60040201816064811061061257600080fd5b602081049091015460ff601f9092166101000a9004169150829050565b6106376111b4565b6001600160a01b0316610648610ac6565b6001600160a01b0316146106775760405162461bcd60e51b815260040161066e90611867565b60405180910390fd5b610683600260006111b8565b6040517fd4ff8c0af33c0e05933772e71fd5276ba3c12fe1d30ece7051fd1217a135e29590600090a1565b60035490565b6106bc6111b4565b6001600160a01b03166106cd610ac6565b6001600160a01b0316146106f35760405162461bcd60e51b815260040161066e90611867565b6001546040516001600160a01b03909116904780156108fc02916000818181858888f1935050505015801561072c573d6000803e3d6000fd5b50565b6000806002838154811061075357634e487b7160e01b600052603260045260246000fd5b60009182526020909120600490910201546001600160a01b03169150505b919050565b61077e6111b4565b6001600160a01b031661078f610ac6565b6001600160a01b0316146107b55760405162461bcd60e51b815260040161066e90611867565b600080546040516001600160a01b03909116907f8be0079c531659141344cd1fd0a4f28419497f9722a3daafe3b4186f6b6457e0908390a3600080546001600160a01b0319169055565b60006002838154811061082257634e487b7160e01b600052603260045260246000fd5b6000918252602090912060049091020180549091506001600160a01b0316331461085e5760405162461bcd60e51b815260040161066e906117ce565b80546001600160a01b0319166001600160a01b03831617815560405183907f5edf8d3cbd06178d149c2e008761e8055de4a427c9cb7a038d34617ee286d58b906108ab903390869061167c565b60405180910390a2505050565b6108c06111b4565b6001600160a01b03166108d1610ac6565b6001600160a01b0316146108f75760405162461bcd60e51b815260040161066e90611867565b6003819055604051819033907ff85a44f0901225583c025b06ac8a7995c066f4c836fe0ab4510662e972deec7a90600090a350565b60025490565b61093a6111b4565b6001600160a01b031661094b610ac6565b6001600160a01b0316146109715760405162461bcd60e51b815260040161066e90611867565b60006002858154811061099457634e487b7160e01b600052603260045260246000fd5b906000526020600020906004020190506008845111156109c55783516109c390600183019060208701906111d9565b505b6008835111156109e65782516109e490600283019060208601906111d9565b505b6003825110610a06578151610a0490600383019060208501906111d9565b505b847fba0aef69287665faf5f9c7a7ee300a92eb02ba56a9c16b4d3ce33e8ade40604a826001018360020184600301604051610a439392919061171f565b60405180910390a25050505050565b610a5a6111b4565b6001600160a01b0316610a6b610ac6565b6001600160a01b031614610a915760405162461bcd60e51b815260040161066e90611867565b6004819055604051819033907fca9e27b941ea000e0a7bd62ac95b3d872bd638bd649a4b5c98cf50032e7f072b90600090a350565b6000546001600160a01b031690565b600060028581548110610af857634e487b7160e01b600052603260045260246000fd5b6000918252602090912060049091020180549091506001600160a01b03163314610b345760405162461bcd60e51b815260040161066e906117ce565b6008845111156109c55783516109c390600183019060208701906111d9565b610b5b6111b4565b6001600160a01b0316610b6c610ac6565b6001600160a01b031614610b925760405162461bcd60e51b815260040161066e90611867565b60028181548110610bb357634e487b7160e01b600052603260045260246000fd5b60009182526020822060049091020180546001600160e01b031916815590610bde600183018261125d565b610bec60028301600061125d565b610bfa60038301600061125d565b505060405181907fd3f5559c9fe2c1b988daa9f5520155e1a89d750e0a7b2ee17afcd4b76dd95bcd90600090a250565b60006008845111610c4d5760405162461bcd60e51b815260040161066e906118d3565b6008835111610c6e5760405162461bcd60e51b815260040161066e9061189c565b600382511015610c905760405162461bcd60e51b815260040161066e906117fa565b60006003546004548789610ca4919061196b565b61ffff16610cb29190611995565b610cbc9190611995565b905060008111610cde5760405162461bcd60e51b815260040161066e90611762565b80341015610cfe5760405162461bcd60e51b815260040161066e9061190a565b60005b8761ffff168161ffff161015610e5a5760005b8761ffff168161ffff161015610e47576005610d30838d611945565b61ffff1660648110610d5257634e487b7160e01b600052603260045260246000fd5b60040201610d60828c611945565b61ffff1660648110610d8257634e487b7160e01b600052603260045260246000fd5b602081049091015460ff601f9092166101000a90041615610db55760405162461bcd60e51b815260040161066e90611842565b60016005610dc3848e611945565b61ffff1660648110610de557634e487b7160e01b600052603260045260246000fd5b60040201610df3838d611945565b61ffff1660648110610e1557634e487b7160e01b600052603260045260246000fd5b602091828204019190066101000a81548160ff0219169083151502179055508080610e3f90611a06565b915050610d14565b5080610e5281611a06565b915050610d01565b50604080516101008101825233815261ffff808c1660208084019182528c83169484019485528b8316606085019081528b84166080860190815260a086018c815260c087018c905260e087018b905260028054600181018255600091909152875160049091027f405787fa12a823e0f2b7631cc41b3ba8828b3321ca811111fa75cd3aa3bb5ace8101805497519a51955194518916600160d01b0261ffff60d01b19958a16600160c01b0261ffff60c01b19978b16600160b01b0261ffff60b01b199d909b16600160a01b0261ffff60a01b196001600160a01b03969096166001600160a01b0319909b169a909a1794909416989098179a909a169790971793909316929092171692909217855590518051939485949093610fa2937f405787fa12a823e0f2b7631cc41b3ba8828b3321ca811111fa75cd3aa3bb5acf9091019201906111d9565b5060c08201518051610fbe9160028401916020909101906111d9565b5060e08201518051610fda9160038401916020909101906111d9565b505060025460009150610fef906001906119b4565b9050807f2da6dbcac8881149f0fb3f13ec291e0a199d244d97c9b7c617d9f861690dde10338d8d8d8d8d8d8d60405161102f989796959493929190611696565b60405180910390a29a9950505050505050505050565b61104d6111b4565b6001600160a01b031661105e610ac6565b6001600160a01b0316146110845760405162461bcd60e51b815260040161066e90611867565b600180546001600160a01b0319166001600160a01b03831690811790915560405133907f618c54559e94f1499a808aad71ee8729f8e74e8c48e979616328ce493a1a52e790600090a350565b6001546001600160a01b031681565b60035481565b6001546001600160a01b031690565b6110fc6111b4565b6001600160a01b031661110d610ac6565b6001600160a01b0316146111335760405162461bcd60e51b815260040161066e90611867565b6001600160a01b0381166111595760405162461bcd60e51b815260040161066e90611788565b600080546040516001600160a01b03808516939216917f8be0079c531659141344cd1fd0a4f28419497f9722a3daafe3b4186f6b6457e091a3600080546001600160a01b0319166001600160a01b0392909216919091179055565b3390565b508054600082556004029060005260206000209081019061072c9190611299565b8280546111e5906119cb565b90600052602060002090601f016020900481019282611207576000855561124d565b82601f1061122057805160ff191683800117855561124d565b8280016001018555821561124d579182015b8281111561124d578251825591602001919060010190611232565b506112599291506112e3565b5090565b508054611269906119cb565b6000825580601f1061127b575061072c565b601f01602090049060005260206000209081019061072c91906112e3565b808211156112595780546001600160e01b031916815560006112be600183018261125d565b6112cc60028301600061125d565b6112da60038301600061125d565b50600401611299565b5b8082111561125957600081556001016112e4565b80356001600160a01b038116811461077157600080fd5b600082601f83011261131f578081fd5b813567ffffffffffffffff8082111561133a5761133a611a3e565b604051601f8301601f19168101602001828111828210171561135e5761135e611a3e565b604052828152848301602001861015611375578384fd5b82602086016020830137918201602001929092529392505050565b803561ffff8116811461077157600080fd5b6000602082840312156113b3578081fd5b6113bc826112f8565b9392505050565b600080600080600080600060e0888a0312156113dd578283fd5b6113e688611390565b96506113f460208901611390565b955061140260408901611390565b945061141060608901611390565b9350608088013567ffffffffffffffff8082111561142c578485fd5b6114388b838c0161130f565b945060a08a013591508082111561144d578384fd5b6114598b838c0161130f565b935060c08a013591508082111561146e578283fd5b5061147b8a828b0161130f565b91505092959891949750929550565b60006020828403121561149b578081fd5b5035919050565b600080604083850312156114b4578182fd5b823591506114c4602084016112f8565b90509250929050565b600080600080608085870312156114e2578384fd5b84359350602085013567ffffffffffffffff80821115611500578485fd5b61150c8883890161130f565b94506040870135915080821115611521578384fd5b61152d8883890161130f565b93506060870135915080821115611542578283fd5b5061154f8782880161130f565b91505092959194509250565b6000806040838503121561156d578182fd5b50508035926020909101359150565b60008151808452815b818110156115a157602081850181015186830182015201611585565b818111156115b25782602083870101525b50601f01601f19169290920160200192915050565b8054600090600281046001808316806115e157607f831692505b602080841082141561160157634e487b7160e01b86526022600452602486fd5b61160b8489611930565b82801561161f57600181146116305761165b565b60ff1987168252828201975061165b565b61163989611939565b60005b878110156116555781548482015290860190840161163c565b83019850505b5050505050505092915050565b6001600160a01b0391909116815260200190565b6001600160a01b0392831681529116602082015260400190565b6001600160a01b038916815261ffff8881166020830152878116604083015286811660608301528516608082015261010060a082018190526000906116dd8382018761157c565b905082810360c08401526116f1818661157c565b905082810360e0840152611705818561157c565b9b9a5050505050505050505050565b901515815260200190565b60006060825261173260608301866115c7565b828103602084015261174481866115c7565b9050828103604084015261175881856115c7565b9695505050505050565b6020808252600c908201526b10dbdcdd081a5cc81395531360a21b604082015260600190565b60208082526026908201527f4f776e61626c653a206e6577206f776e657220697320746865207a65726f206160408201526564647265737360d01b606082015260800190565b60208082526012908201527113db9b1e481bdddb995c88185b1b1bddd95960721b604082015260600190565b60208082526028908201527f5469746c65206d75737420636f6e7461696e206174206c656173742033206368604082015267617261637465727360c01b606082015260800190565b6020808252600b908201526a139bdd08185b1b1bddd95960aa1b604082015260600190565b6020808252818101527f4f776e61626c653a2063616c6c6572206973206e6f7420746865206f776e6572604082015260600190565b6020808252601b908201527f496d6167652073686f756c642062652068747470733a2f2f2e2e2e0000000000604082015260600190565b6020808252601a908201527f4c696e6b2073686f756c642062652068747470733a2f2f2e2e2e000000000000604082015260600190565b6020808252600c908201526b436f737420746f6f206c6f7760a01b604082015260600190565b90815260200190565b60009081526020902090565b600061ffff80831681851680830382111561196257611962611a28565b01949350505050565b600061ffff8083168185168183048111821515161561198c5761198c611a28565b02949350505050565b60008160001904831182151516156119af576119af611a28565b500290565b6000828210156119c6576119c6611a28565b500390565b6002810460018216806119df57607f821691505b60208210811415611a0057634e487b7160e01b600052602260045260246000fd5b50919050565b600061ffff80831681811415611a1e57611a1e611a28565b6001019392505050565b634e487b7160e01b600052601160045260246000fd5b634e487b7160e01b600052604160045260246000fdfea2646970667358221220379cfb027729a19c03973af265577786e8da98246902c4d84451a590153878ee64736f6c63430008000033",
  "immutableReferences": {},
  "source": "// SPDX-License-Identifier: MIT\n\npragma solidity ^0.8.0;\n\nimport \"./access/Ownable.sol\";\n\ncontract OneMillionPixel is Ownable {\n\n    // Struct\n    struct Ad {\n        address owner;\n        uint16 x;\n        uint16 y;\n        uint16 width;\n        uint16 height;\n        string link;\n        string image;\n        string title;\n    }\n\n    // Variables\n    address public devaddr;\n    Ad[] public ads;\n    uint256 public weiPixelPrice;\n    uint256 public pixelsPerCell = 100;\n    bool[100][100] public grid;\n\n    // Events\n    event SetDevAddress(address indexed user, address indexed newAddress);\n    event SetWeiPixelPrice(address indexed user, uint256 indexed newWeiPixelPrice);\n    event SetPixelsPerCell(address indexed user, uint256 indexed newPixelsPerCell);\n    event SetAdOwner(uint256 indexed idx, address from, address to);\n    event Buy(uint256 indexed idx, address owner, uint16 x, uint16 y, uint16 width, uint16 height, string link, string image, string title);\n    event Edit(uint256 indexed idx, string link, string image, string title);\n    event Destroy(uint256 indexed idx);\n    event DestroyAll();\n\n    // Constructor\n    constructor(address _devaddr, uint256 _weiPixelPrice) {\n        devaddr = _devaddr;\n        weiPixelPrice = _weiPixelPrice;\n    }\n\n    // Dev Adresses\n    function setDevAddress(address _devaddr) public onlyOwner {\n        devaddr = _devaddr;\n        emit SetDevAddress(msg.sender, _devaddr);\n    }\n    function getDevAddress() public view returns (address) {\n        return devaddr;\n    }\n\n    // Price per pixel\n    function setWeiPixelPrice(uint256 _weiPixelPrice) public onlyOwner {\n        weiPixelPrice = _weiPixelPrice;\n        emit SetWeiPixelPrice(msg.sender, _weiPixelPrice);\n    }\n    function getWeiPixelPrice()  public view returns (uint256) {\n        return weiPixelPrice;\n    }\n\n    // Price per cell\n    function setPixelsPerCell(uint256 _pixelsPerCell) public onlyOwner {\n        pixelsPerCell = _pixelsPerCell;\n        emit SetPixelsPerCell(msg.sender, _pixelsPerCell);\n    }\n    function getPixelsPerCell() public view returns (uint256){\n        return pixelsPerCell;\n    }\n\n    // Owner ads\n    function setAdOwner(uint256 _idx, address _newOwner) public {\n        Ad storage ad = ads[_idx];\n        require(msg.sender == ad.owner, 'Only owner allowed');\n        ad.owner = _newOwner;\n\n        emit SetAdOwner(_idx, msg.sender, _newOwner);\n    }\n    function getAdOwner(uint256 _idx) public view returns (address) {\n        Ad storage ad = ads[_idx];\n        return ad.owner;\n    }\n\n    // Ads length\n    function getAdsLength() external view returns (uint256) {\n        return ads.length;\n    }\n\n    // Buy\n    function buy(uint16 _x, uint16 _y, uint16 _width, uint16 _height, string memory _link, string memory _image, string memory _title) public payable returns (uint256) {\n\n        require(bytes(_link).length > 8, 'Link should be https://...');\n        require(bytes(_image).length > 8, 'Image should be https://...');\n        require(bytes(_title).length >= 3, 'Title must contain at least 3 characters');\n\n        uint256 cost = _width * _height * pixelsPerCell * weiPixelPrice;\n        require(cost > 0, 'Cost is NULL');\n        require(msg.value >= cost, 'Cost too low');\n\n        // Loop over relevant grid entries\n        for(uint16 i=0; i<_width; i++) {\n            for(uint16 j=0; j<_height; j++) {\n                if (grid[_x+i][_y+j]) {\n                    // Already taken, undo.\n                    revert('Not allowed');\n                }\n                grid[_x+i][_y+j] = true;\n            }\n        }\n\n        // We reserved space in the grid, now make a placeholder entry.\n        Ad memory ad = Ad(msg.sender, _x, _y, _width, _height, _link, _image, _title);\n        ads.push(ad);\n        uint256 idx = ads.length - 1;\n        emit Buy(idx, msg.sender, _x, _y, _width, _height, _link, _image, _title);\n        return idx;\n    }\n\n    // Edit\n    function edit(uint256 _idx, string memory _link, string memory _image, string memory _title) public {\n        Ad storage ad = ads[_idx];\n        require(msg.sender == ad.owner, 'Only owner allowed');\n\n        // https:// is 8 length\n        if(bytes(_link).length > 8){\n            ad.link = _link;\n        }\n        // https:// is 8 length\n        if(bytes(_image).length > 8){\n            ad.image = _image;\n        }\n        // min 3 char for title\n        if(bytes(_title).length >= 3){\n            ad.title = _title;\n        }\n\n        emit Edit(_idx, ad.link, ad.image, ad.title);\n    }\n\n    // Edit\n    function editByAdmin(uint256 _idx, string memory _link, string memory _image, string memory _title) public onlyOwner{\n        Ad storage ad = ads[_idx];\n\n        // https:// is 8 length\n        if(bytes(_link).length > 8){\n            ad.link = _link;\n        }\n        // https:// is 8 length\n        if(bytes(_image).length > 8){\n            ad.image = _image;\n        }\n        // min 3 char for title\n        if(bytes(_title).length >= 3){\n            ad.title = _title;\n        }\n\n        emit Edit(_idx, ad.link, ad.image, ad.title);\n    }\n\n    // Destroy\n    function destroy(uint256 _idx) public onlyOwner{\n        delete ads[_idx];\n        emit Destroy(_idx);\n    }\n\n    // Destroy All\n    function destroyAll() public onlyOwner{\n        delete ads;\n        emit DestroyAll();\n    }\n\n    // withdraw\n    function withdraw() public payable onlyOwner {\n        payable(devaddr).transfer(address(this).balance);\n    }\n}\n",
  "sourcePath": "C:/Users/De Battista/Google Drive/Developpement/Website/1millionsV2/solidity/contracts/OneMillionPixel.sol",
  "compiler": {
    "name": "solc",
    "version": "0.8.0+commit.c7dfd78e.Emscripten.clang"
  },
  "schemaVersion": "3.3.4",
  "updatedAt": "2021-05-26T16:47:23.957Z",
  "devdoc": {
    "kind": "dev",
    "methods": {
      "owner()": {
        "details": "Returns the address of the current owner."
      },
      "renounceOwnership()": {
        "details": "Leaves the contract without owner. It will not be possible to call `onlyOwner` functions anymore. Can only be called by the current owner. NOTE: Renouncing ownership will leave the contract without an owner, thereby removing any functionality that is only available to the owner."
      },
      "transferOwnership(address)": {
        "details": "Transfers ownership of the contract to a new account (`newOwner`). Can only be called by the current owner."
      }
    },
    "version": 1
  },
  "userdoc": {
    "kind": "user",
    "methods": {},
    "version": 1
  }
}